S017000074656D705F73656E736F725F6C63642E73726563CC
S11300000C942A000C9447000C9447000C9447006D
S11300100C9447000C9447000C9447000C94470040
S11300200C9447000C9447000C9447000C94470030
S11300300C9447000C9447000C9447000C94470020
S11300400C9447000C9447000C9447000C94470010
S11300500C94470011241FBECFE5D8E0DEBFCDBF0E
S113006010E0A0E6B0E0E8EBFDE002C005900D92E0
S1130070A638B107D9F710E0A6E8B0E001C01D9298
S1130080A039B107E1F70E94D8040C94DA060C9465
S113009000003E9A3F9A379A329A319A0895369AD6
S11300A03699FECF84B190E045B1342F20E0822B05
S11300B0932B0895843409F471C0853448F4823450
S11300C099F1833408F04DC0813409F083C00FC026
S11300D0823651F1833620F4813609F07BC007C0A3
S11300E0833609F43EC0843609F074C057C04130E9
S11300F069F42AB381E090E0AC0102C0440F551FBB
S11301006A95E2F7BA01622B6ABB08952AB381E0CB
S113011090E0AC0102C0440F551F6A95E2F7BA01A2
S1130120609562236ABB0895413069F427B381E086
S113013090E0AC0102C0440F551F6A95E2F7BA0182
S1130140622B67BB089527B381E090E0AC0102C045
S1130150440F551F6A95E2F7BA016095622367BBA5
S11301600895413069F424B381E090E0AC0102C009
S1130170440F551F6A95E2F7BA01622B64BB0895D8
S113018024B381E090E0AC0102C0440F551F6A958E
S1130190E2F7BA016095622364BB0895413069F4C3
S11301A021B381E090E0AC0102C0440F551F6A9571
S11301B0E2F7BA01622B61BB089521B381E090E0BC
S11301C0AC0102C0440F551F6A95E2F7BA0160956D
S11301D0622361BB0895843409F471C0853448F402
S11301E0823499F1833408F04DC0813409F083C01E
S11301F00FC0823651F1833620F4813609F07BC07A
S113020007C0833609F43EC0843609F074C057C071
S1130210413069F42BB381E090E0AC0102C0440F9B
S1130220551F6A95E2F7BA01622B6BBB08952BB395
S113023081E090E0AC0102C0440F551F6A95E2F7DB
S1130240BA01609562236BBB0895413069F428B309
S113025081E090E0AC0102C0440F551F6A95E2F7BB
S1130260BA01622B68BB089528B381E090E0AC0129
S113027002C0440F551F6A95E2F7BA0160956223E4
S113028068BB0895413069F425B381E090E0AC0186
S113029002C0440F551F6A95E2F7BA01622B65BB91
S11302A0089525B381E090E0AC0102C0440F551FCE
S11302B06A95E2F7BA016095622365BB08954130FF
S11302C069F422B381E090E0AC0102C0440F551FF1
S11302D06A95E2F7BA01622B62BB089522B381E00A
S11302E090E0AC0102C0440F551F6A95E2F7BA01D1
S11302F06095622362BB08958434B1F1853438F487
S11303008234E1F0833428F58134C1F50CC082369F
S1130310A9F0833618F4813689F505C08336C9F00F
S1130320843661F521C029B330E0C90102C0959536
S113033087956A95E2F7982F917020C026B330E034
S1130340C90102C0959587956A95E2F7982F917037
S113035015C023B330E0C90102C0959587956A950D
S1130360E2F7982F91700AC020B330E0C90102C0AF
S1130370959587956A95E2F7982F9170892F08953E
S1130380843409F43DC0853440F48234F9F0833474
S113039050F5813409F040C00CC08236B9F0833680
S11303A018F48136C9F505C08336E9F08436A1F521
S11303B027C02BB381E090E0AC0102C0440F551F6D
S11303C06A95E2F7BA0162276BBB089528B381E00E
S11303D090E0AC0102C0440F551F6A95E2F7BA01E0
S11303E0622768BB089525B381E090E0AC0102C0A8
S11303F0440F551F6A95E2F7BA01622765BB089559
S113040022B381E090E0AC0102C0440F551F6A950D
S1130410E2F7BA01622762BB08958434D9F08534C7
S113042038F4823499F0833498F48134A1F40CC004
S1130430823661F0833618F4813669F405C0833658
S113044039F0843641F406C06ABB089567BB089549
S113045064BB089561BB08958434D9F0853438F4BD
S1130460823499F0833498F48134A1F40CC0823638
S113047061F0833618F4813669F405C0833639F0A7
S1130480843641F406C06BBB089568BB089565BB10
S1130490089562BB08958434D9F0853438F48234E5
S11304A099F0833498F48134A1F40CC0823661F05D
S11304B0833618F4813669F405C0833639F08436FE
S11304C041F406C089B3089586B3089583B30895AB
S11304D080B30895843409F1853438F48234A9F062
S11304E08334B8F48134E1F40CC0823671F083367D
S11304F018F48136A9F405C0833659F0843681F4A2
S11305000CC08BB380958BBB089588B3809588BB52
S1130510089585B3809585BB089582B3809582BB89
S11305200895843409F480C0853448F48234C1F1D8
S1130530833408F057C0813409F097C00FC0823665
S113054079F1833620F4813609F08FC007C08336F1
S113055009F448C0843609F088C066C0413091F47B
S11305602BB381E090E0AC0102C0440F551F6A95A3
S1130570E2F7BA01822F842B8BBB8AB36095682380
S11305806ABB08952BB381E090E0AC0102C0440F34
S1130590551F6A95E2F7BA01609562236BBB089513
S11305A0413091F428B381E090E0AC0102C0440FE3
S11305B0551F6A95E2F7BA01822F842B88BB87B353
S11305C06095682367BB089528B381E090E0AC018F
S11305D002C0440F551F6A95E2F7BA016095622381
S11305E068BB0895413091F425B381E090E0AC01FB
S11305F002C0440F551F6A95E2F7BA01822F842B7B
S113060085BB84B36095682364BB089525B381E0FA
S113061090E0AC0102C0440F551F6A95E2F7BA019D
S11306206095622365BB0895413091F422B381E063
S113063090E0AC0102C0440F551F6A95E2F7BA017D
S1130640822F842B82BB81B36095682361BB08959C
S113065022B381E090E0AC0102C0440F551F6A95BB
S1130660E2F7BA016095622362BB08956F70843427
S113067051F1853438F48234C1F08334E8F48134A0
S113068041F50CC0823689F0833618F4813609F5B9
S113069005C0833689F08436E1F415C08BB3807FBE
S11306A08BBB8BB3682B6BBB089588B3807F88BBEF
S11306B088B3682B68BB089585B3807F85BB85B3F9
S11306C0682B65BB089582B3807F82BB82B3682B9D
S11306D062BB08956295607F843451F1853438F4A7
S11306E08234C1F08334E8F4813441F50CC082369D
S11306F089F0833618F4813609F505C0833689F00C
S11307008436E1F415C08BB38F708BBB8BB3682B2D
S11307106BBB089588B38F7088BB88B3682B68BBA4
S1130720089585B38F7085BB85B3682B65BB089529
S113073082B38F7082BB82B3682B62BB0895AF9281
S1130740BF92CF92DF92EF92FF920F931F93CF93BA
S1130750DF935C01FB01309749F1CB0100E010E02D
S11307602AE030E00F5F1F4FB9010E94B306CB01AE
S11307700097C1F7680110161106D4F4E501C00F03
S1130780D11F20E030E00F2EFAE0EF2EFF24F02DF1
S1130790CF01B7010E94B306E62FF72F805D8A933D
S11307A02F5F3F4F2C153D0599F702C000E010E084
S11307B00A0D1B1DF8011082DF91CF911F910F913B
S11307C0FF90EF90DF90CF90BF90AF90089583E4B7
S11307D060E041E00E94EB008FE99FE00197F1F7B0
S11307E000C0000083E460E040E00E94EB008FE979
S11307F09FE00197F1F700C000000895CF93C82F40
S1130800682F62956F7082E490E070E00E94360376
S113081083E461E040E00E94EB000E94E7038FEC78
S113082097E00197F1F700C0000082E490E06C2F9C
S113083070E00E9436030E94E7038FEC97E0019773
S1130840F1F700C00000CF91089582E460E041E038
S11308500E945A0082E461E041E00E945A0082E46E
S113086062E041E00E945A0082E463E041E00E94B9
S11308705A0083E460E041E00E945A0083E461E0AE
S113088041E00E945A0082E00E94FE038FE19EE450
S11308900197F1F700C0000088E20E94FE038FEC8C
S11308A097E00197F1F700C0000081E00E94FE0389
S11308B08FE19EE40197F1F700C0000086E00E94FA
S11308C0FE038FEC97E00197F1F700C000008EE083
S11308D00E94FE038FEC97E00197F1F700C000003F
S11308E00895CF93C82F682F62956F7082E490E0CB
S11308F070E00E94360383E461E041E00E94EB0073
S11309000E94E7038FEC97E00197F1F700C0000025
S113091082E490E06C2F70E00E9436030E94E703AB
S11309208FEC97E00197F1F700C00000CF91089594
S1130930CF93DF93EC018881882331F021960E94C4
S1130940710489918823D9F78FEC97E00197F1F727
S113095000C00000DF91CF91089581E00E94FE0362
S11309608FE19EE40197F1F700C000000895282F5D
S11309702150223070F4662371F0613170F48130BB
S113098019F4962F91580AC0823041F4962F91544D
S113099005C090E803C090E801C090E8892F0E9448
S11309A0FE038FEC97E00197F1F700C00000089573
S11309B00E9425048CE00E94FE030E94490080E608
S11309C090E00E94980406E810E00F2EF6E6CF2E81
S11309D0F0E0DF2EF02D0F2EFCE7EF2EF0E0FF2EDF
S11309E0F02D0F2EFEE6AF2EF0E0BF2EF02D0E946C
S11309F04F00BC0180E090E00E94C20520E030E09E
S1130A0040E85EE30E9428060E949605DC01CB01C3
S1130A10EC018A309105B8F581E066E00E94B704E4
S1130A20C801BE010E949F03C8010E9498048FED73
S1130A300E94710483E60E94710480E20E947104A2
S1130A4080E20E94710482E061E00E94B704C60162
S1130A500E94980480E20E94710480E20E94710462
S1130A6080E20E94710480E20E94710480E20E948C
S1130A70710480E20E94710480E20E94710480E2A9
S1130A800E947104B4CF8436910528F581E066E0B4
S1130A900E94B704C801BE010E949F03C8010E94BE
S1130AA098048FED0E94710483E60E94710480E231
S1130AB00E94710480E20E94710482E061E00E945D
S1130AC0B704C5010E94980480E20E94710480E288
S1130AD00E9471048CCF81E066E00E94B704C801D3
S1130AE0BE010E949F03C8010E9498048FED0E94DA
S1130AF0710483E60E94710480E20E94710480E222
S1130B000E94710482E061E00E94B704C7010E9460
S1130B10980480E20E94710480E20E94710480E2E1
S1130B200E94710480E20E94710461CF70D088F049
S1130B309F5790F0B92F9927B751A0F0D1F0660FC5
S1130B40771F881F991F1AF0BA95C9F712C0B130E0
S1130B5081F077D0B1E0089574C0672F782F88278B
S1130B60B85F39F0B93FCCF3869577956795B3951F
S1130B70D9F73EF490958095709561957F4F8F4F8E
S1130B809F4F0895E89409C097FB3EF49095809593
S1130B90709561957F4F8F4F9F4F9923A9F0F92F3F
S1130BA096E9BB279395F695879577956795B795BD
S1130BB0F111F8CFFAF4BB0F11F460FF1BC06F5FA3
S1130BC07F4F8F4F9F4F16C0882311F096E911C0B5
S1130BD0772321F09EE8872F762F05C0662371F0D6
S1130BE096E8862F70E060E02AF09A95660F771FEA
S1130BF0881FDAF7880F9695879597F9089557FD1A
S1130C009058440F551F59F05F3F71F04795880F76
S1130C1097FB991F61F09F3F79F08795089512160D
S1130C2013061406551FF2CF4695F1DF08C01616B9
S1130C3017061806991FF1CF86957105610508946A
S1130C400895E894BB2766277727CB0197F9089581
S1130C500BD078C069D028F06ED018F0952309F035
S1130C605AC05FC01124EECFCADFA0F3959FD1F321
S1130C70950F50E0551F629FF001729FBB27F00D46
S1130C80B11D639FAA27F00DB11DAA1F649F66279B
S1130C90B00DA11D661F829F2227B00DA11D621FEA
S1130CA0739FB00DA11D621F839FA00D611D221FA4
S1130CB0749F3327A00D611D231F849F600D211D88
S1130CC0822F762F6A2F11249F5750408AF0E1F02B
S1130CD088234AF0EE0FFF1FBB1F661F771F881F74
S1130CE091505040A9F79E3F510570F014C0AACF0F
S1130CF05F3FECF3983EDCF3869577956795B7955F
S1130D00F795E7959F5FC1F7FE2B880F911D969588
S1130D10879597F9089597F99F6780E870E060E0F8
S1130D2008959FEF80EC089500240A941616170680
S1130D3018060906089500240A94121613061406C8
S1130D4005060895092E0394000C11F4882352F02B
S1130D50BB0F40F4BF2B11F460FF04C06F5F7F4FE3
S1130D608F4F9F4F089597FB092E07260AD077FDD2
S1130D7004D00CD006D000201AF4709561957F4FF2
S1130D800895F6F7909581959F4F0895AA1BBB1B74
S1130D9051E107C0AA1FBB1FA617B70710F0A61B77
S1130DA0B70B881F991F5A95A9F780959095BC0198
S10B0DB0CD010895F894FFCF72
S1130DB874656D703D006C6F2074656D70004D6FC7
S1130DC86465726174652074656D70006869207467
S1090DD8656D702121008D
S9030000FC
